:0400000031EF7FF06D
:10FE6200000193EF7FF0016E01C083FF1200026E6A
:10FE72008482025034EC7FF0849484928482120053
:10FE8200000E046E000E036E59EF7FF0000E056E39
:10FE920000F000F000F000F000F0052AC70E056443
:10FEA20055EF7FF057EF7FF049EF7FF0034A042AC6
:10FEB2000150035C02500458D8A062EF7FF064EF57
:10FEC2007FF047EF7FF0120084928494000E026E5E
:10FED200140E016E41EC7FF08482380E38EC7FF014
:10FEE200000E026E050E016E41EC7FF0380E38EC0A
:10FEF2007FF0000E026E010E016E41EC7FF0380EB3
:10FF020038EC7FF0080E38EC7FF00F0E38EC7FF003
:10FF1200010E38EC7FF0380E38EC7FF0800E38ECB2
:10FF22007FF0120065EC7FF0010E38EC7FF0000EDE
:10FF3200086E000E076E000E066E000E026E320E86
:10FF4200016E41EC7FF00650D8B4AAEF7FF0ACEF1F
:10FF52007FF0CBEF7FF007500810D8B4B3EF7FF0FB
:10FF6200B5EF7FF0C0EF7FF00706D8A00806030EBA
:10FF7200026EE70E016E41EC7FF0CBEF7FF0065090
:10FF8200D8B4C6EF7FF0C9EF7FF0010ECAEF7FF061
:10FF9200000E066E81B2D0EF7FF0D2EF7FF0E0EF7D
:10FFA2007FF00650D8A4D8EF7FF0DAEF7FF09EEF13
:10FFB2007FF0000E086E000E076E9EEF7FF081B696
:10FFC200E5EF7FF0E7EF7FF09EEF7FF00A0E072468
:10FFD200076E000E0820086E110E075C0E0E085800
:10FFE200D8A0F6EF7FF0F8EF7FF09EEF7FF0000EE3
:0EFFF200086E000E076E9EEF7FF000EF00F02D
:020000040020DA
:08000000FFFFFFFFFFFFFFFF00
:020000040030CA
:0E000000FF06181EFF0180FF0FC00FE00F402B
:00000001FF
